{
  "contractName": "Election",
  "abi": [
    {
      "constant": true,
      "inputs": [],
      "name": "candidatesCount",
      "outputs": [
        {
          "name": "",
          "type": "uint256"
        }
      ],
      "payable": false,
      "stateMutability": "view",
      "type": "function"
    },
    {
      "constant": true,
      "inputs": [
        {
          "name": "",
          "type": "uint256"
        }
      ],
      "name": "candidates",
      "outputs": [
        {
          "name": "name",
          "type": "string"
        },
        {
          "name": "part",
          "type": "string"
        },
        {
          "name": "voteCount",
          "type": "uint256"
        },
        {
          "name": "id",
          "type": "uint256"
        }
      ],
      "payable": false,
      "stateMutability": "view",
      "type": "function"
    },
    {
      "constant": true,
      "inputs": [
        {
          "name": "",
          "type": "address"
        }
      ],
      "name": "voters",
      "outputs": [
        {
          "name": "account",
          "type": "address"
        },
        {
          "name": "valid",
          "type": "uint256"
        },
        {
          "name": "id",
          "type": "uint256"
        }
      ],
      "payable": false,
      "stateMutability": "view",
      "type": "function"
    },
    {
      "inputs": [],
      "payable": false,
      "stateMutability": "nonpayable",
      "type": "constructor"
    },
    {
      "constant": false,
      "inputs": [],
      "name": "getCandidatesCount",
      "outputs": [
        {
          "name": "",
          "type": "uint256"
        }
      ],
      "payable": false,
      "stateMutability": "nonpayable",
      "type": "function"
    },
    {
      "constant": false,
      "inputs": [
        {
          "name": "_id",
          "type": "uint256"
        }
      ],
      "name": "addVote",
      "outputs": [
        {
          "name": "",
          "type": "uint256"
        }
      ],
      "payable": false,
      "stateMutability": "nonpayable",
      "type": "function"
    }
  ],
  "bytecode": "0x6080604052600060015534801561001557600080fd5b506080604051908101604052806040805190810160405280600181526020017f410000000000000000000000000000000000000000000000000000000000000081525081526020016040805190810160405280600481526020017f42657461000000000000000000000000000000000000000000000000000000008152508152602001600081526020016001600081546001019190508190558152506000806001815260200190815260200160002060008201518160000190805190602001906100e0929190610219565b5060208201518160010190805190602001906100fd929190610219565b5060408201518160020155606082015181600301559050506080604051908101604052806040805190810160405280600181526020017f420000000000000000000000000000000000000000000000000000000000000081525081526020016040805190810160405280600581526020017f47616d6d610000000000000000000000000000000000000000000000000000008152508152602001600081526020016001600081546001019190508190558152506000806002815260200190815260200160002060008201518160000190805190602001906101df929190610219565b5060208201518160010190805190602001906101fc929190610219565b5060408201518160020155606082015181600301559050506102be565b828054600181600116156101000203166002900490600052602060002090601f016020900481019282601f1061025a57805160ff1916838001178555610288565b82800160010185558215610288579182015b8281111561028757825182559160200191906001019061026c565b5b5090506102959190610299565b5090565b6102bb91905b808211156102b757600081600090555060010161029f565b5090565b90565b610695806102cd6000396000f30060806040526004361061006d576000357c0100000000000000000000000000000000000000000000000000000000900463ffffffff1680630383badc146100725780632d35a8a2146100b35780633477ee2e146100de578063a3ec138d146101fe578063bb9aa28f1461028f575b600080fd5b34801561007e57600080fd5b5061009d600480360381019080803590602001909291905050506102ba565b6040518082815260200191505060405180910390f35b3480156100bf57600080fd5b506100c86104af565b6040518082815260200191505060405180910390f35b3480156100ea57600080fd5b50610109600480360381019080803590602001909291905050506104b5565b604051808060200180602001858152602001848152602001838103835287818151815260200191508051906020019080838360005b8381101561015957808201518184015260208101905061013e565b50505050905090810190601f1680156101865780820380516001836020036101000a031916815260200191505b50838103825286818151815260200191508051906020019080838360005b838110156101bf5780820151818401526020810190506101a4565b50505050905090810190601f1680156101ec5780820380516001836020036101000a031916815260200191505b50965050505050505060405180910390f35b34801561020a57600080fd5b5061023f600480360381019080803573ffffffffffffffffffffffffffffffffffffffff169060200190929190505050610615565b604051808473ffffffffffffffffffffffffffffffffffffffff1673ffffffffffffffffffffffffffffffffffffffff168152602001838152602001828152602001935050505060405180910390f35b34801561029b57600080fd5b506102a461065f565b6040518082815260200191505060405180910390f35b60006001600260003373ffffffffffffffffffffffffffffffffffffffff1673ffffffffffffffffffffffffffffffffffffffff168152602001908152602001600020600101541415151561039d576040517f08c379a00000000000000000000000000000000000000000000000000000000081526004018080602001828103825260258152602001807f536f7272792c20796f75206861766520616c726561647920766f746564206f6e81526020017f63652e2e2e00000000000000000000000000000000000000000000000000000081525060400191505060405180910390fd5b6060604051908101604052803373ffffffffffffffffffffffffffffffffffffffff1681526020016001815260200183815250600260003373ffffffffffffffffffffffffffffffffffffffff1673ffffffffffffffffffffffffffffffffffffffff16815260200190815260200160002060008201518160000160006101000a81548173ffffffffffffffffffffffffffffffffffffffff021916908373ffffffffffffffffffffffffffffffffffffffff160217905550602082015181600101556040820151816002015590505060008083815260200190815260200160002060020160008154809291906001019190505550600080838152602001908152602001600020600201549050919050565b60015481565b6000602052806000526040600020600091509050806000018054600181600116156101000203166002900480601f0160208091040260200160405190810160405280929190818152602001828054600181600116156101000203166002900480156105615780601f1061053657610100808354040283529160200191610561565b820191906000526020600020905b81548152906001019060200180831161054457829003601f168201915b505050505090806001018054600181600116156101000203166002900480601f0160208091040260200160405190810160405280929190818152602001828054600181600116156101000203166002900480156105ff5780601f106105d4576101008083540402835291602001916105ff565b820191906000526020600020905b8154815290600101906020018083116105e257829003601f168201915b5050505050908060020154908060030154905084565b60026020528060005260406000206000915090508060000160009054906101000a900473ffffffffffffffffffffffffffffffffffffffff16908060010154908060020154905083565b60006001549050905600a165627a7a72305820220bff25de799075167957e12f4f54ced727fc1aba5f267f3435da67bced767c0029",
  "source": "pragma solidity >=0.4.21 <0.7.0;\n\ncontract Election {\n    struct Candidate {\n        string name;\n        string part;\n        uint voteCount;\n        uint id;\n    }\n\n    mapping(uint => Candidate) public candidates;\n    uint public candidatesCount=0;\n\n    constructor() public {\n        candidates[1] = Candidate(\"A\", \"Beta\", 0, ++candidatesCount);\n        candidates[2] = Candidate(\"B\", \"Gamma\", 0, ++candidatesCount);\n    }\n\n    struct Voter {\n        address account;\n        uint valid;\n        uint id;\n    }\n\n    mapping(address => Voter) public voters;\n\n    modifier isValid() {\n        require(voters[msg.sender].valid != 1,\"Sorry, you have already voted once...\");\n        _;\n    }\n\n    function getCandidatesCount() public returns(uint){\n        return candidatesCount;\n    }\n    function addVote(uint _id) public isValid() returns (uint) {\n        voters[msg.sender] = Voter(msg.sender,1,_id);\n        candidates[_id].voteCount++;\n        return candidates[_id].voteCount;\n    }\n\n}\n",
  "sourcePath": "/home/prashilalva/PrashilAlva/MyPrograms/Solidity/Elections/contracts/Elections.sol",
  "compiler": {
    "name": "solc",
    "version": "0.4.26+commit.4563c3fc.Emscripten.clang"
  },
  "schemaVersion": "2.0.3",
  "updatedAt": "2020-03-28T05:28:12.232Z"
}